:020000040800F2
:10000000100E0020450100087F280008612000082C
:100010007D2800085F02000831330008000000005E
:10002000000000000000000000000000F12F0008A8
:10003000AD02000800000000F12A0008A930000805
:100040005F0100085F0100085F010008352C00080F
:100050005F0100085F0100085F0100085F01000800
:100060005F0100085F0100085F0100085F010008F0
:100070005F0100085F0100085F0100085F010008E0
:100080005F0100085F0100085F0100085F010008D0
:100090005F0100085F0100085F0100085F010008C0
:1000A0005F0100085F0100085F0100085F010008B0
:1000B0005F0100085F0100085F0100085F010008A0
:1000C0005F0100085F0100085F0100086D2D000856
:1000D0005F010008ED3200085F0100085F010008C1
:1000E0005F0100085F0100085F0100085F01000870
:1000F0005F0100085F0100085F0100085F01000860
:100100005F0100085F0100085F010008792D000809
:100110005F0100085F0100085F0100085F0100083F
:100120005F0100085F0100085F0100085F0100082F
:10013000DFF80CD000F072F800480047A145000835
:10014000100E00200648804706480047FEE7FEE7FD
:10015000FEE7FEE7FEE7FEE7FEE7FEE7FEE7FEE777
:100160001531000831010008202A04DB203A21FA69
:1001700002F00021704721FA02F3D040C2F12002C0
:100180009140084319467047D2B201E000F8012BB4
:10019000491EFBD270470022F6E710B513460A4607
:1001A00004461946FFF7F0FF204610BD421C10F828
:1001B000011B0029FBD1801A70472DE9F05F05462D
:1001C000002092469B4688460646814640241BE016
:1001D0002846414647462246FFF7C6FF53465A4641
:1001E000C01A914110D311461846224600F028F853
:1001F0002D1A67EB01084F4622460120002100F02E
:100200001FF817EB00094E41201EA4F10104DFDCAA
:10021000484631462A464346BDE8F09F064C074D06
:1002200006E0E06840F0010394E8070098471034C6
:10023000AC42F6D3FFF780FFF8790008187A00087F
:10024000202A04DB203A00FA02F100207047914096
:10025000C2F1200320FA03F3194390407047FEE7F0
:1002600070B54FF6FF7200244AF201050CE0035D01
:100270005A400023D6074FEA520200D06A405B1C66
:10028000DBB2082BF6D3641C8C42F0D3100A40EA90
:10029000022070BD70B50C46054602F03BFD20EA19
:1002A00004012846BDE8704003F044B870470000E0
:1002B000064A0021D16106490A6942F002020A6138
:1002C0004861086940F04000086170476001002003
:1002D00000200240044B0022DA61044A136943F013
:1002E000010313610180704760010020002002407B
:1002F00014480022C168CB06134904D5CA6942F0EC
:100300000202CA611022C3685B0705D5CB6943F0BE
:100310000103CB6142F00402C369DB0707D0CB695C
:1003200043F00403CB61C16921F00101C161A2F571
:100330008071013901D0C2607047C16921F00101AB
:10034000C1617047002002406001002070B5054681
:1003500000F06EFB0646114C09E0681C07D025B181
:1003600000F066FB801BA84201D9032070BDE06845
:10037000C007F2D1E068800601D52020E060E06887
:10038000C00605D4E069C00702D1E068400703D584
:10039000FFF7AEFF012070BD002070BD00200240BD
:1003A0002DE9FF4F83B004461220CDE90040DDF86F
:1003B00044B000274FF080093148109A07EB07112D
:1003C00010F811301278934240D100EB410A109896
:1003D0009AF801104078814238D1049804990F307E
:1003E00083B204F10F0082B2204601F0D1FF002653
:1003F00000250AEB060800BFBBF1000F13D021490E
:100400000598088098F8021029FA05F0014203D0F7
:100410002046049901F052FE641C0098A4B2201AF0
:10042000102826D00AE098F8021029FA05F00142B7
:1004300001D0059800E0069802F0EAF86D1CEDB2D4
:10044000082DD9D3761CF6B2202ED1D37F1C01986B
:10045000BFB28742B0D30C484188008807B0491E1C
:10046000BDE8F04F401E8BB282B20021084601F079
:100470008FBF0498009C401C80B20490E2E700000B
:10048000D454000828000020020200202DE9FF4F6C
:1004900083B004460820CDE90040DDF844B00027D1
:1004A0004FF0800907EB870000EB47113048109AA6
:1004B00010F811301278934240D100EB410A1098A5
:1004C0009AF801104078814238D104980499173085
:1004D00083B204F1170082B2204601F059FF0026D2
:1004E00000250AEB060800BFBBF1000F13D021491D
:1004F0000598088098F8021029FA05F0014203D007
:100500002046049901F0DAFD641C0098A4B2201A78
:10051000182826D00AE098F8021029FA05F00142BE
:1005200001D0059800E0069802F072F86D1CEDB25B
:10053000082DD9D3761CF6B2482ED1D37F1C019852
:10054000BFB28742AED30C484188008807B0491E2D
:10055000BDE8F04F401E8BB282B20021084601F088
:1005600017BF0498009C401C80B20490E2E7000092
:1005700038570008280000200202002070B51546F8
:1005800001F1270293B200F1270292B201F000FFBD
:1005900000244FF4C86600BF05EB440115F81400B1
:1005A000497840EA012002F033F8641CB442F3DBDE
:1005B000064841880088491E401EBDE870408BB245
:1005C00082B20021084601F0E3BE000002020020D2
:1005D0002DE9FE431F46DDE90A469046894620463E
:1005E0000C9DFFF7E3FD0A4980B240420988CDE93E
:1005F000004601EBC00000EBD070C0F34F003B465B
:1006000042464946029502F001FDBDE8FE83000026
:10061000020200202DE9F05F90F821100024022949
:1006200003D004218163012485E001680A6822F077
:100630000E020A6001680A6822F001020A603F4E59
:100640003E4FB215DFF8F4C0DFF8F090DFF8ECA011
:10065000DFF8E8B0DFF8E4E00168783F1301150245
:10066000ACF1640CA9F15009AAF13C0AABF1280BDA
:10067000AEF1140E4FF48018B14227D9B9420ED012
:10068000614512D049451DD0514518D0594518D063
:10069000714501D1424615E0294EB14201D10122F6
:1006A00010E0274E1436B14201D110220AE0244E48
:1006B0002836B14206D0224A3C32914201D11A4634
:1006C00000E02A461E49091F0A602BE0B94213D0F8
:1006D000614517D0494522D051451DD059451DD0FF
:1006E000714501D142461AE0B14202D14FF0807209
:1006F00015E0134EB14201D1012210E0104E143624
:10070000B14201D110220AE00D4E2836B14206D086
:100710000B4A3C32914201D11A4600E02A46074971
:1007200080394A60012180F82110002180F82010D2
:10073000416B01B188472046BDE8F09F8000024030
:100740000804024070B5044600F072F90546601CCA
:1007500002D004480078044400F06AF9401BA0422B
:10076000FAD370BD100000200348016941F08001F8
:100770000161002070470000002002402DE9F05F79
:1007800007461C4888460024017E15461E4601295E
:1007900009D00121814601764CF2503A5046FFF7CC
:1007A000D5FD18B122E00220BDE8F09F012F02D054
:1007B000022F00D00427D346DFF83CA022012846B0
:1007C0003146FFF7D1FC81B208EB4400FFF782FD10
:1007D0005846FFF7BBFDDAF8102022F00102CAF8F4
:1007E000102018B9641CE4B2BC42E7D3002289F897
:1007F0001820D9E7600100200020024006490020AF
:100800000A69120607D5054A4A60054A4A6009691D
:10081000090600D5012070470020024023016745EA
:10082000AB89EFCD2DE9F84FDFF8C891002409F12D
:10083000040A0AF1040B23460F270BF1040ED1E042
:100840000125A54006EA0502AA4276D1DFF8A8C133
:100850004E68A6EB0C0866452BD00DDC032E34D079
:1008600005DC36B3012E19D0022E2FD11BE0112E3C
:1008700016D0122E2AD119E0B8F5881F19D006DC3F
:10088000B8F5803F15D0B8F5801F1FD111E0B8F53D
:10089000001F0ED0B8F5041F18D10AE0CB6815E090
:1008A000CB681B1D12E0CB6808330FE0CB680C331C
:1008B0000CE08B682BB1012B4FF0080303D045618E
:1008C00004E0042302E0056100E00023FF2A01D8D0
:1008D000064601E000F104064FEA840501D9A5F1BE
:1008E0002005D6F8008007FA05FC28EA0C0803FA70
:1008F00005F548EA0508C6F800804D68ED0070D59A
:100900003E4DAE6946F00106AE61AD6924F00306C6
:1009100005F0010500953A4D06EB050CDCF8085092
:10092000A607360F07FA06F825EA0805DFF8D4808F
:10093000404503D14FF0000825E052E0DFF8C880C1
:10094000404502D14FF001081DE0DFF8C08040456E
:1009500002D14FF0020816E0DFF8B480404502D122
:100960004FF003080FE0DFF8AC80404502D14FF0B4
:10097000040808E0DFF8A080404502D14FF00508E8
:1009800001E04FF0060808FA06F848EA0508CCF836
:1009900008804D68D9F80060ED034D4601D5164337
:1009A00000E096432E604D68DAF80060AD035546CE
:1009B00001D5164300E096432E604D68DBF80060D9
:1009C000ED025D4601D5164300E096432E604D686A
:1009D000DEF80060AD02754601D5164300E096438F
:1009E0002E60641C0A681646E2407FF429AFBDE819
:1009F000F88F0000000401400000111000100240B8
:100A00000000014000080140000C014000100140BE
:100A10000014014000180140001C0140806808409B
:100A200000D0012070470AB1016170470904FBE75B
:100A3000014880687047000010000020024881686B
:100A4000027811448160704710000020074810B5FB
:100A5000016841F010010160032000F075F80120E9
:100A600000F006F800F024F8002010BD002002403D
:100A700070B50D4D04464FF47A712878B1FBF0F053
:100A80000A490968B1FBF0F001F059F948B9102C96
:100A900007D200222146501E00F036F800206C607C
:100AA00070BD012070BD0000100000201C0000205F
:100AB0000C4808B5816941F001018161816901F04B
:100AC00001010091C16941F08051C161C06900F02C
:100AD000805000900448416821F0E06141F00071CD
:100AE000416008BD0010024000000140002809DB01
:100AF00000F01F02012191404009800000F1E02038
:100B0000C0F8001170470000F0B40E4B1B680C4693
:100B1000C3F30223C3F10705042D00D90425191DD1
:100B2000072901D2002300E0DB1E012606FA05F1A9
:100B3000491E214099409E40761E16403143F0BC2C
:100B400002F042BC0CED00E0064900F00702086824
:100B50004FF6FF03184040EA0220034A10430860A2
:100B6000704700000CED00E00000FA05014901208B
:100B70000862704700000E4210B52CA401461DCC3F
:100B800086B08DE81D002DA02D4C0068049000203B
:100B900004292FD00BDC01292FD0022928D100F005
:100BA00071F96168C1F38131491C49001EE00829CF
:100BB00020D010291CD161682268D20118D5C1F358
:100BC0008342C9031DF8020009D5616804AAC1F374
:100BD0004041515C1B4AB2FBF1F1484301E01A4924
:100BE00048436168490203D440000321B0FBF1F09F
:100BF00006B010BD00F056F9FAE7226AC2F30121EF
:100C0000012903D1920701D5C803F1E7022905D1D3
:100C1000626A920702D549F64040E9E70329E7D125
:100C200021688903E4D54FF22440E1E7020304057B
:100C3000060708090A0B0C0D0E0F10100102000028
:100C40000010024000127A0000093D002DE9F8432F
:100C500005460078354CC00754D0E0690026C00036
:100C600008D4E06940F08050E061E069012600F0BE
:100C7000805000902E480168C90512D40168804652
:100C800041F480710160FFF7D3FE074605E000BF25
:100C9000FFF7CEFEC01B642823D8D8F80000C0059B
:100CA000F6D5206A10F4407021D0A98801F4407173
:100CB00081421CD0206A1F49012220F440700A6042
:100CC00000220A602062C00711D0FFF7B1FE07467C
:100CD00041F2883808E000BFFFF7AAFEC11B41457A
:100CE00002D90320BDE8F883206A8007F4D5206A82
:100CF000696820F44070084320621EB1E06920F06A
:100D00008050E0612878800705D56068A96820F4E4
:100D10004040084360602878C00605D5606869696E
:100D200020F48000084360600020DBE700100240F0
:100D300000700040400442422DE9F0470F46050094
:100D400061D0434E306800F00700B84209D23068E5
:100D500020F0070038433060306800F00700B842E8
:100D600051D128683B4C810712D5400703D56068F4
:100D700040F4E06060602878000703D5606840F4C4
:100D8000605060606068A96820F0F000084360600F
:100D90002878C00728D06868012810D02168022868
:100DA00010D0890700292EDA616821F00301014380
:100DB0006160FFF73DFE804641F288390DE0216811
:100DC0008903EFE78901EDE7FFF732FEA0EB0801A9
:100DD000494502D90320BDE8F0876068696800F0E2
:100DE0000C00B0EB810FEFD1306800F00700B84283
:100DF0000BD9306820F0070038433060306800F0CD
:100E00000700B84201D00120E5E72878400705D562
:100E10006068E96820F4E0600843606028780007B3
:100E200006D56068296920F4605040EAC10060601E
:100E300000F038F86168084AC1F30311515CC840FA
:100E40000649086006480068FFF712FE0020C2E766
:100E50000020024000100240CC4E00081C00002080
:100E6000140000200448054900684968044AC1F399
:100E70000221515CC84070471C0000200010024055
:100E8000DC4E00080448054900684968044AC1F37B
:100E9000C221515CC84070471C0000200010024075
:100EA000DC4E000812A185B00FC98DE80F0014A018
:100EB000144A006804905168134801F00C03042B95
:100EC00010D0082B0ED1C1F38343C9031DF80300D2
:100ED0000AD5516804AAC1F34041515C0A4A504303
:100EE000B0FBF1F005B0704708494843FAE700004D
:100EF00002030405060708090A0B0C0D0E0F10105B
:100F0000010200000010024000127A0000093D00BA
:100F10002DE9F84F040070D02078C04DC00749D0AB
:100F20006868C0F38100012807D06868C0F38100B9
:100F3000022809D16868C00306D52868800339D51E
:100F400060680028E7D035E06068B0F5803F0BD0DE
:100F500010B1B0F5A02F11D0286820F4803028609F
:100F6000286820F4802002E0286840F4803028605F
:100F7000606890B1FFF75CFD06460AE0286840F41F
:100F800080202860F0E700BFFFF752FD801B642837
:100F900073D828688003F7D50CE0FFF749FD0646B3
:100FA00005E000BFFFF744FD801B6428F0D82868E7
:100FB0008003F7D420789A4E80074FF001094FF054
:100FC000000839D5686810F00C0F07D06868C0F3C6
:100FD0008100022809D16868C00306D42868800708
:100FE00014D52069012808D110E02069B0B1C6F8F5
:100FF0000090FFF71DFD074605E00AE1FFF718FD29
:10100000C01B0228C4D828688007F7D52868616902
:1010100020F0F80040EAC10028600DE0C6F800802A
:10102000FFF706FD074604E0FFF702FDC01B02289C
:1010300023D828688007F7D4207800072CD5794872
:10104000A169D9B1C0F80090FFF7F2FC074604E0AF
:10105000FFF7EEFCC01B02280FD8686A8007F7D59F
:1010600071484FF4FA510068B0FBF1F0009000BFF6
:101070000098411E0091FAD20EE080E0C0F8008096
:10108000FFF7D6FC074604E0FFF7D2FCC01B02289E
:1010900075D8686A8007F7D42078400760D5E8697A
:1010A0000027C00008D4E86940F08050E861E86992
:1010B000012700F0805000905C480168C90513D4F6
:1010C0000168834641F480710160FFF7B1FC8246FC
:1010D00006E000BFFFF7ACFCA0EB0A0064284ED886
:1010E000DBF80000C005F5D5E06801280AD008B19A
:1010F000052813D0286A20F001002862286A20F011
:10110000040002E0286A40F001002862E06841F231
:10111000883B98B1FFF78CFC82460BE0286A40F0D0
:1011200004002862EEE700BFFFF782FCA0EB0A0193
:1011300059455AD8286A8007F6D50CE0FFF778FCA5
:10114000824605E0FFF774FCA0EB0A0159454CD834
:10115000286A8007F6D41FB1E86920F08050E86162
:10116000E06988B36968C1F38101022944D002288B
:10117000C6F8608004D0FFF75BFC044638E034E03A
:10118000FFF756FC074604E0FFF752FCC01B02289D
:101190002BD828688001F7D4206AB0F5803F05D1AC
:1011A0006868A16820F4003008436860D4E9080149
:1011B0000843696821F4741108436860C6F86090B8
:1011C000FFF736FC044606E025E000BFFFF730FCE1
:1011D000001B022809D828688001F7D51BE000BF52
:1011E000FFF726FC001B022802D90320BDE8F88F78
:1011F00028688001F4D40EE00128F7D06868226ADC
:1012000000F48031914204D1616A00F47010884288
:1012100001D00120EAE70020E8E7000000100240CA
:1012200000004242800442421C0000200070004046
:101230007047704710B5044600680168C90716D0AA
:101240004168C90713D040684007204607D5FFF71B
:10125000F0FF21686FF004004860042002E0FFF70F
:10126000E7FF0120607421686FF00100486010BD45
:10127000F8B505004FF0000016460C46009006D069
:101280002CB100226946284600F019F808B1012067
:10129000F8BD287B2070E87BE070697B6170A97BDA
:1012A000A17056B101F02EFCE070607801F02AFCCC
:1012B0006070A07801F026FCA0700020F8BD2DE938
:1012C000F04791460C465FEA00084AD084B3D8F84C
:1012D00000004068400744D4404601F0B8FC4FF499
:1012E00061620546B0FBF2F1B0FBF2F302FB135072
:1012F0003C23B0FBF3F0B5FBF2F6607002FB165036
:10130000B0FBF3F203FB1200A070182931D31820B0
:10131000B1FBF0F7B1FBF0F200FB12102070404679
:1013200001F08EFC411C04D0A84202D9461B02E009
:1013300017E04FF0FF36A7EB071000EB4000C0EBC3
:10134000001005EBC0152946404601F0CFFC40B91E
:10135000701C01D0711900E03146404601F0B2FC2A
:1013600010B10120BDE8F0873946404601F0D5FBB9
:1013700000E02170B9F1000F0BD0207801F0C2FB22
:101380002070607801F0BEFB6070A07801F0BAFBBD
:10139000A0700020E6E7000070B5040003D0607C78
:1013A000002610B105E0012070BD2674204600F033
:1013B00043F802206074204600F01AF9042578BB37
:1013C000204601F001FC58BB2068416821F007016C
:1013D0004160A06820B11748016821F00101016057
:1013E0001448001F0168A26821F460711143016074
:1013F0006068411C04D10120FFF7BEFB80B1401E94
:1014000021688A6822F00F0242EA10428A6021684D
:10141000CA6860F30F02CA60204601F0EFFB08B112
:101420006574C0E7E67301206073A07360740020E8
:1014300070BD0000306C004008B500680D4988425E
:1014400017D1FFF793FB0C48C16941F00061C161FE
:10145000C0690A4900F00060009001200860002285
:1014600011460320FFF750FBBDE808400320FFF7BB
:101470003DBB08BD00280040001002403C04424231
:101480002DE9F0410D4604003BD0C5B3207C012876
:101490003AD04FF0010884F8108002206074E87898
:1014A00072B301F026FBE073687801F022FB6073F1
:1014B000A87801F01EFBA073C2B2617BE07B01F053
:1014C000D6FB20732870204601F0C1FB4FF4616108
:1014D000B0FBF1F1002518292DD91822B1FBF2F14A
:1014E000A1EB011101EB4101C1EB011100EBC116B0
:1014F0003146204601F0FAFB0427C8B90BE000E0B2
:1015000004E00120BDE8F0810220FBE7E073687889
:101510006073A878CFE7204601F092FB411C0AD007
:10152000B04208D206490144204601F0CBFB10B17D
:1015300067742574E5E784F8118025740020E1E7DD
:10154000805101002DE9F0410D46040024D01DB367
:10155000207C012823D04FF0010884F8108002205D
:1015600060742878EAB101F0C4FA4FF4616100FBBD
:1015700001F6687801F0BDFAC0EB001006EB8006BA
:10158000A87801F0B6FA35182946204601F0AEFBDE
:101590000026042710BB0FE00120BDE8F0810220E7
:1015A000FBE74FF4616148436978C1EB011100EB3F
:1015B0008100A9784518E7E72068416821F0050116
:1015C0004160204601F03CFB411C0AD0A84208D2F1
:1015D00006490144204601F075FB10B1677426747A
:1015E000DAE784F8118026740020D6E780510100E4
:1015F00070B504000AD02068416821F008014160FC
:10160000FFF716FA05464FF47A7608E0012070BD20
:10161000FFF70EFA401BB04201D9032070BD2068CD
:1016200040680007F4D5002070BD704738B5044607
:10163000006842688168C9434B0606D5CB0704D1D0
:10164000D3435B0601D4216C05E08B0708D4D34358
:101650001B0605D4616C01B02046BDE83040084748
:101660008B0601D54B0646D4D3439B0643D44B0689
:101670000AD494F85130032B3ED0636D43F0040339
:101680006365C36883680093890609D4616D41F07E
:101690000101616581680091016821F040010160EC
:1016A000606D002827D02068416821F0E00141608A
:1016B000012084F85100900722D02068416821F071
:1016C00003014160104DE06C40B14563E06CFEF7F2
:1016D000A1FF18B1606D40F040006065A06C00286B
:1016E00009D04563A06CFEF795FF002803D0606D1C
:1016F00040F04000606538BDC1688068009038BD2A
:101700002046FFF792FF38BD852D000870B5040014
:1017100009D0606A002540B125616561A56294F831
:10172000510040B10CE0012070BD6068B0F5827FCF
:10173000F4D0E561F2E784F85050204600F040F81C
:10174000022084F851002068016821F04001016006
:10175000A088218900F4827001F404410843A18922
:1017600001F400610843217C01F002010843217D5E
:1017700001F001010843218B01F400710843217F2E
:1017800001F03801084394F8201001F0800108436B
:10179000218D01F40051084321680860A0690421EB
:1017A00001EA1040216848602068C16921F40061A5
:1017B000C1616565012084F85100002070BD000002
:1017C00030B585B0002400940194029403942E4D0A
:1017D00003682E4802210322AB4227D1836943F4D8
:1017E00080538361836903F480530493836943F0D6
:1017F000040383618069264D00F004000490A0205A
:10180000CDE90001039269462846FFF70BF8402016
:10181000CDE90004694628460294FFF703F8002248
:1018200006212320FFF770F9232029E0194DAB4250
:1018300028D1C36943F40043C361C36903F400437F
:101840000493836943F0080383618069124D00F0BB
:10185000080004902820CDE900010392694628463B
:10186000FEF7E0FF1020CDE9000469462846029407
:10187000FEF7D8FF002205213320FFF745F933207A
:10188000FFF734F905B030BD0030014000100240D0
:1018900000080140003C0040000C01402DE9F84FD9
:1018A000044640680025984616460F464FF0040B44
:1018B000B0F5827F01D1A06888B194F8500001286A
:1018C00018D0012084F85000FFF7B2F8814694F850
:1018D00051004FF0000A01280ED0022582E084F862
:1018E00051B013460A462046CDF8008000F036F984
:1018F000BDE8F88F0220FBE7002F72D0002E70D0D9
:1019000084F851B0C4F854A0A763A687E687C4F84A
:1019100030A0A4F834A0A4F836A0C4F840A0C4F8BD
:1019200044A0A068B0F5004F09D12068016821F0FB
:10193000400101602068016821F480410160206855
:101940000168490603D4016841F040010160E06884
:10195000D8B139E020688168C90709D0007BA16B44
:101960000870A06B401CA063E08F401EE0870CE075
:10197000FFF75EF8A0EB0901414503D3B8F1FF3F43
:1019800003D036E0B8F1000F33D0E08F0028E1D16A
:101990001DE020688168C90709D0C068A16B088074
:1019A000A06B801CA063E08F401EE0870CE0FFF777
:1019B0003FF8A0EB0901414503D3B8F1FF3F03D045
:1019C00017E0B8F1000F14D0E08F0028E1D14A46AB
:1019D0004146204601F0DEF908B120206065606DC7
:1019E00000B10125012084F8510084F850A0284658
:1019F0007EE70325F6E72DE9F84F044690F85000FE
:101A000000271D461646894601280DD04FF0010BD0
:101A100084F850B0FFF70CF8804694F85100BA46AD
:101A2000012804D0022793E00220BDE8F88FB9F125
:101A3000000F73D0002E71D0032084F85100C4F839
:101A400054A0C4F83090A686E686C4F838A0A4F85E
:101A50003CA0A4F83EA0C4F844A0C4F840A0A068EC
:101A6000B0F5004F09D12068016821F04001016004
:101A70002068016841F480410160206801684906DE
:101A800003D4016841F040010160E068B0F5006FE7
:101A9000606803D030B3012E24D041E008B1012E9C
:101AA0001CD1206B21680088C86006E0206881682E
:101AB000890709D5216B0988C160206B801C2063D0
:101AC000E08E401EE08609E0FEF7B2FFA0EB0800C2
:101AD000A84202D3681C01D031E07DB3E08E00281B
:101AE000E4D120E0206B21680078087306E02068CC
:101AF0008168890709D5216B09780173206B401C27
:101B00002063E08E401EE0860AE0FEF791FFA0EB26
:101B10000800A84203D3681C02D010E017E06DB1A2
:101B2000E08E0028E3D142462946204601F060F9C4
:101B300008B120206065A06818B106E0FFE7032720
:101B400006E02068C16880680090606D00B10127E0
:101B500084F851B084F850A0384666E72DE9F84F74
:101B6000044690F8500000270A9E1D4692468B4678
:101B70004FF0010901280ED0012084F85000FEF733
:101B800057FF804694F85100616801280CD0B1F5E8
:101B9000827F07D102E00220BDE8F88FA16809B971
:101BA000042801D00227C2E0BBF1000F27D0BAF110
:101BB000000F24D01DB394F85100042802D0052052
:101BC00084F8510000206065C4F838A0E587A58737
:101BD000C4F830B0E586A58620646064206801689A
:101BE000490603D4016841F040010160E068B0F5A6
:101BF000006F606805D0E8B3012D46D07FE0012773
:101C000095E008B1012D39D1206B21680088C860AA
:101C1000206B801C2063E08E401EE0862EE0206852
:101C2000816889070FD5E18E69B1B9F1010F0AD139
:101C3000216B0988C160206B801C2063E08E401EF0
:101C4000E0864FF0000920688168C9070CD0E18F59
:101C500051B1C068A16B0880A06B801CA063E08FAD
:101C6000401EE0874FF00109FEF7E2FEA0EB0800FE
:101C7000B04200E009E001D3701C50D1E08E002892
:101C8000CDD1E08F0028CAD13FE0206B21680078D9
:101C90000873206B401C2063E08E401EE0862EE01F
:101CA0002068816889070FD5E18E69B1B9F1010F0C
:101CB0000AD1216B09780173206B401C2063E08EF0
:101CC000401EE0864FF0000920688168C9070CD0EB
:101CD000E18F51B1C068A16B0870A06B401CA0637C
:101CE000E08F401EE0874FF00109FEF7A1FEA0EB58
:101CF0000800B04202D3701C01D010E07EB1E08E2B
:101D00000028CDD1E08F0028CAD142463146204676
:101D100001F06EF828B101272020606507E0032755
:101D200005E0A06818B92068C168806800900120AB
:101D300084F85100002084F8500038462CE710B594
:101D4000401EB0F1807F01D3012010BD4FF0E02490
:101D500060610F21601701F037FB0020A0610720B0
:101D60002061002010BD704770B5026804461068FD
:101D7000D168536910F00F0F52D003F0010501F440
:101D800090762E435FD0C20705D0CA0503D5E26B1B
:101D900042F00102E263420705D5DA0703D0E26BA5
:101DA00042F00202E263820705D5DA0703D0E26B54
:101DB00042F00402E263020707D501F020022A4341
:101DC00003D0E26B42F00802E263E26B002A33D0F8
:101DD000800604D5880602D5204601F0B2F92068B5
:101DE0004069E16BC0F38010090700D428B3204696
:101DF00001F099F92068416949061AD5416921F035
:101E000040014161606BA0B12D494163606BFEF7F9
:101E100001FC002810D0606B416BBDE870400847A2
:101E2000830610D58B060ED52046BDE8704001F024
:101E300088B92046FFF797FF70BD2046FFF793FF54
:101E40000020E06370BD03062BD50B0629D594F85E
:101E500039002128F6D1A068B0F5805F01D1206952
:101E6000B0B1206A411C2162216800784860E08C92
:101E7000401E0004000CE084E4D12068C16821F019
:101E80008001C1602068C16841F04001C16070BD3F
:101E9000206A0088C0F308005060206A801C20621D
:101EA000E5E74006F3D54806F1D5D168204621F094
:101EB0004001D160202184F8391000F0D0F870BDC5
:101EC0001731000870B5040004D094F839000025DB
:101ED00010B106E0012070BD84F83850204600F0B3
:101EE00023F8242084F839002068C16821F40051C7
:101EF000C160204601F06CF92068016921F490412D
:101F000001612068416921F02A0141612068C168AE
:101F100041F40051C160E563202084F8390084F861
:101F20003A00002070BD000030B585B00024009458
:101F30000194029403940068184988422CD11848EF
:101F4000816941F480418161816901F4804104919A
:101F5000816941F0040181618069124D00F0040043
:101F600004904FF400700090022001900320039031
:101F700069462846FEF756FC2815CDE90004694657
:101F800028460294FEF74EFC002211462520FEF75B
:101F9000BBFD2520FEF7AAFD05B030BD003801408D
:101FA0000010024000080140704700002DE9F8438E
:101FB000044690F839001F4616460D4620284CD19D
:101FC000C5B1BEB194F83800012846D0012084F88C
:101FD00038004FF00008C4F83C80212084F8390014
:101FE000FEF726FDA6848146E684A068B0F5805FF2
:101FF00003D004E00120BDE8F883206928B12E4613
:102000005FF0000584F838800EE00026FAE78021B2
:10201000204601F039F9A0B9AEB116F8010B2168DC
:102020004860E08C401EE084E08C4B464FF000029C
:1020300000970028EBD14FF04001204601F024F931
:1020400030B10320D7E735F8020BC0F30800E6E70C
:10205000202084F839000020CDE70220CBE770472C
:10206000FEE700002DE9F047124C81460021608810
:10207000401E83B22088401E82B2084600F088F9D4
:102080000D4E4FF04008C6F81480802030610025C6
:1020900009E0002703E0484600F0BAFA7F1C2088D8
:1020A000B842F8D86D1C6088A842F2D8C6F81080F3
:1020B000BDE8F087020200200010014010B500F0DA
:1020C00063F903480088BDE8104000F0A1BA0000A1
:1020D000280000202DE9F041141A641CA6B25C1AF5
:1020E000641CA7B2DDF8188000F052F900250AE060
:1020F000002404E0404600F08BFA641CA4B2B44211
:10210000F8D36D1CADB2BD42F2D3064841880088B9
:10211000491EBDE8F041401E8BB282B20021084644
:1021200000F036B90202002010B500F01DF9CF20F2
:1021300000F026FA002000F011FAD92000F00EFA83
:10214000302000F00BFAED2000F01AFA642000F0C5
:1021500005FA032000F002FA122000F0FFF98120B6
:1021600000F0FCF9E82000F00BFA852000F0F6F909
:10217000102000F0F3F97A2000F0F0F9CB2000F005
:10218000FFF9392000F0EAF92C2000F0E7F90020EF
:1021900000F0E4F9342000F0E1F9022000F0DEF96B
:1021A000F72000F0EDF9202000F0D8F9EA2000F047
:1021B000E7F9002000F0D2F9002000F0CFF9C020AC
:1021C00000F0DEF91B2000F0C9F9C12000F0D8F9B9
:1021D000122000F0C3F9C52000F0D2F9262000F04B
:1021E000BDF9262000F0BAF9C72000F0C9F9B020E7
:1021F00000F0B4F9362000F0C3F9082000F0AEF981
:102200003A2000F0BDF9552000F0A8F9B12000F007
:10221000B7F9002000F0A2F91A2000F09FF9B620CB
:1022200000F0AEF90A2000F099F9A22000F096F92A
:10223000F22000F0A5F9002000F090F9262000F02F
:102240009FF9012000F08AF9E02000F099F91F20A1
:1022500000F084F9242000F081F9242000F07EF9B8
:102260000D2000F07BF9122000F078F9092000F031
:1022700075F9522000F072F9B72000F06FF93F2095
:1022800000F06CF90C2000F069F9152000F066F9F7
:10229000062000F063F90E2000F060F9082000F03D
:1022A0005DF9002000F05AF9E12000F069F9002002
:1022B00000F054F91B2000F051F91B2000F04EF9FA
:1022C000022000F04BF90E2000F048F9062000F043
:1022D00045F92E2000F042F9482000F03FF93F2058
:1022E00000F03CF9032000F039F90A2000F036F93B
:1022F000092000F033F9312000F030F9372000F0E8
:102300002DF91F2000F02AF92B2000F039F90020C8
:1023100000F024F9002000F021F9012000F01EF95E
:102320003F2000F01BF92A2000F02AF9002000F0DD
:1023300015F9002000F012F9002000F00FF9EF204D
:1023400000F00CF9112000F01BF97820FEF7FAF9E3
:10235000292000F015F9012000F034F9BDE8104003
:102360004FF6FF70FFF77EBE70B5064C2025656105
:102370006420FEF7E7F92561BDE870403220FEF7E2
:10238000E1B90000001001400B460246AFF30080A7
:102390002DE9F041DFF8508007461C4615460E46F1
:1023A00098F80A0000F0ECF8380A00F0D7F8F8B214
:1023B00000F0D4F8280A00F0D1F8E8B200F0CEF826
:1023C00098F80C0000F0DCF8300A00F0C7F8F0B222
:1023D00000F0C4F8200A00F0C1F8E0B200F0BEF846
:1023E000BDE8F04100F0DEB8020200202DE9FF4F09
:1023F00081B088460EA9DFF8509191E83100B9F814
:1024000000B0202C16D0502C14D02038C6B208EBC7
:102410000400401E83B20198414600EB5400401E68
:1024200082B20198FFF7B4FF48482DB1002500EBB8
:10243000061A76E03038E9E78025202C05D0502CAC
:102440001ED0002500EB06184DE04148002400EBAB
:10245000861800BF18F804705FF0000625FA06F031
:10246000384201D0039800E0049800F0D1F8761CBF
:10247000F6B2082EF2D3641CA4B2402CEAD352E088
:1024800006EBC600334900EB0610002401EB0018F0
:102490004FF4C87A18F804705FF0000625FA06F0C9
:1024A000384201D0039800E0049800F0B1F8761C9F
:1024B000F6B2082EF2D3641CA4B25445EAD332E03B
:1024C00018F80570002609E0F80701D0039800E02D
:1024D000049800F09DF87F08761CF6B2B6EB540F16
:1024E000F2D36D1CADB2A542EAD31CE01AF8057018
:1024F00008EB0500002600900EE00398A9F8000004
:10250000F80706D0009881B20198304480B2FFF7F6
:10251000D5FD7F08761CF6B2B6EB540FEDD36D1CDB
:10252000ADB2A542E2D30C48A9F800B041880088BA
:1025300005B0491EBDE8F04F401E8BB282B20021AB
:102540000846FFF725BF000028000020E44E0008E1
:1025500088590008485C00080202002031B5064C8A
:1025600040256561802020613223012269460348AD
:10257000FFF741FA256138BD0010014070000020CE
:1025800031B5064C4025656180206061322301220F
:1025900069460348FFF72FFA256138BD0010014056
:1025A000700000200148007AFFF7EABF0202002015
:1025B00010B50C46FFF7E4FFE0B2BDE81040FFF7AE
:1025C000CDBF000011492A224FF4A0734A812B226B
:1025D0008A812C220A81F02258B101280DD00228CC
:1025E0000FD0032811D10B804A80A8213620FFF795
:1025F000DFBF0A804B800821F8E70B804A80682102
:10260000F4E70A804B80C821F0E7704702020020FF
:1026100031B5064C402565618020206132230222BD
:1026200069460348FFF7E7F9256138BD001001400E
:102630007000002010B5412801D0FF2010BD0821F6
:102640000846FDF727FE3D21112000F073FE86218C
:10265000172000F06FFE7F21262000F06BFE1E2168
:102660002D2000F067FE00212C2000F063FE8D215C
:102670002A2000F05FFE3E212B2000F05BFE0A20A6
:10268000FEF760F800F000F9002010BD2DE9F04FD2
:1026900085B0002440480094019402940394816919
:1026A00041F010018161816901F01001049181699B
:1026B00041F020018161816901F02001049181696B
:1026C00041F004018161816901F004010491816993
:1026D00041F0080181618069DFF8C08000F00800E6
:1026E0000490002240F60E014046FEF79CF9DFF808
:1026F000B09001224FF447614846FEF794F900225A
:102700004FF494514846FEF78EF90122D10340461A
:10271000FEF789F9DFF88CA0002204215046FEF76D
:1027200082F9DFF884B04FF46077012239465846C9
:10273000FEF779F90F2001258DE8310069464846FA
:10274000FEF770F848F60E000226CDE90005CDE947
:10275000024669464046FEF765F841F6F060CDE96D
:102760000005CDE9024669464846FEF75BF80420BD
:10277000CDE90005CDE9024669465046FEF752F81C
:1027800000970396CDE9015469465846FEF74AF88A
:1027900005B0BDE8F08F00000010024000080140C5
:1027A0000010014000140140000C01401CB5002441
:1027B00015480194134900940160611E41604FF473
:1027C00080718160FEF7E8FD8DF804408DF80540CA
:1027D0008DF80640012201A90B48FEF7B3FE012047
:1027E0008DF8000005208DF8010003208DF802000F
:1027F00021208DF80300012269460348FEF740FEC0
:102800001CBD0000002800405C0000200C480B4963
:102810004FF4007201604FF48271416000218160C9
:10282000C1600161C0E905121022C0E907214162BF
:1028300081620A21C162FEF769BF000000300140D9
:10284000700000200C480B494FF4007201604FF4F7
:102850008271416000218160C1600161C0E905129F
:102860000822C0E90721416281620A21C162FEF7A4
:102870004DBF0000003C0040C8000020FEE770474C
:1028800003211420FDF706BD10B5142000F042FA14
:10289000800705D10321BDE81040142000F0A9BB3A
:1028A00010BD70B50646082188B000240846FDF723
:1028B000F1FC00210D2000F03DFD80210E20FDF7F0
:1028C000E9FC93208DF8040020208DF8050006A86F
:1028D00001AB0090022219460C2000F017F8050009
:1028E0000DD1002101A8425C7254425C491C544045
:1028F000C9B20429F7D3405CA04200D0FE25802154
:102900000E2000F076FB08B0284670BD2DE9FF5F71
:102910000027FE25DDF838A016468B468146B846CE
:102920000C2805D0B9F10E0F05D11227102001E0B7
:1029300077273020804647F08001022000F0FAFC23
:1029400080210420FDF7A6FC0021012000F0F2FC0C
:1029500080210A2000F04DFB002405E01BF8041044
:10296000092000F0E7FC641CB442F7D3494601207B
:1029700000F0E0FCB9F10C0F03D180210D2000F034
:1029800038FB4FF4FA66042000F0C4F90446761EC2
:1029900004D0E00702D114EA080FF4D080210D2002
:1029A000FDF778FC36B1062000F0B4F910F01B0FEB
:1029B0000CD0FE2580210C2000F01BFB0021012003
:1029C00000F0B8FC04B02846BDE8F09F00253C406C
:1029D000E00700D0FF25B9F10C0FEBD10A2000F081
:1029E00099F904460C2000F095F910F007004FEA21
:1029F000C40101D008390144CAF8001024B1122CD6
:102A000004D91224002603E00124FBE7002605E098
:102A1000092000F07FF903998855761CA642F7D368
:102A2000C8E730B50C460546082187B00846FDF7D3
:102A300031FC07210D2000F07DFC0321142000F063
:102A4000D8FA06A801AB00908DF80450012219466F
:102A50000C20FFF75BFF10B90699102902D0FE2069
:102A600007B030BD9DF8041021709DF8051061700D
:102A7000F6E7000010B51D4C012204212046FDF7A9
:102A8000D2FF0120FDF75EFE002204212046FDF763
:102A9000CAFF0120FDF756FE012204212046FDF762
:102AA000C2FF0120FDF74EFE0F21012000F042FC85
:102AB0000120FDF747FE3D21112000F03BFC1E21C7
:102AC0002D2000F037FC00212C2000F033FC8D215C
:102AD0002A2000F02FFC3E212B2000F02BFC40216F
:102AE000152000F027FC002010BD0000001401405C
:102AF0007047010901EB810100F00F0000EB41007C
:102B0000C0B27047002102E00A38C0B2491C0A284E
:102B1000FAD2090740EA116070472DE9F0410446F6
:102B20000025C07B627BA37B42E0012A16D0032AEA
:102B300014D0052A12D0072A10D0082A0ED00A2A4B
:102B40000CD00C2A0AD0042A10D0062A0ED0092A4A
:102B50000CD00B2A0AD0022A0DD028E01F2B0CD350
:102B60000C2A05D101221346401C20E01E2B04D361
:102B70000123521C1BE01C2B02D203F1010316E0BF
:102B800011D183B29E0710D16426B3FBF6F706FB82
:102B9000173636B94FF4C876B3FBF6F706FB173392
:102BA0001BB91D2303E01D2B01D1032201236D1C42
:102BB0008D42BAD3D1B2E0736173DAB2A27300F07E
:102BC00056F82073BDE8F08170B50446FDF730FF7C
:102BD00005464FF47A7606E0FDF72AFF401BB04227
:102BE00001D9032070BD206840688006F4D52068B4
:102BF000416841F010014160002070BD70B504468D
:102C00000068416821F010014160FDF711FF0546A1
:102C10004FF47A7607E000BFFDF70AFF401BB04291
:102C200001D9032070BD206840688006F4D50020DB
:102C300070BD00000148FEF7FDBA00005C000020F6
:102C40000168086A496A89B241EA00407047006831
:102C500081698AB2C1698BB2816989B28A4203D023
:102C6000C06961F31F40704743EA02407047F0B506
:102C70006424C1EBC1030927A500072603EB011358
:102C80000329B3FBF7F100F5FA60114401440AD2BD
:102C9000401EB0FBF4F201EB9001B0FBF5F0891A95
:102CA0000844001D08E0B0FBF4F201EB9001B0FB1A
:102CB000F5F0891A0844801CB0FBF6F106FB110000
:102CC000C0B2F0BD70B50D4606460024FFF77CFF8C
:102CD00048B93168280C08623168A8B248623046A9
:102CE000FFF78CFF00B10124204670BD70B50D4682
:102CF00006460024FFF768FF48B93168280C886150
:102D00003168A8B2C8613046FFF778FF00B10124EE
:102D1000204670BD7CB504460020124E8DF80000A0
:102D200002464FF4004529463046FDF77CFE7E20E2
:102D300000EA440040F080008DF8040032230122B4
:102D400001A90948FEF757FE3223012269460648C9
:102D5000FEF7A4FD012229463046FDF764FE9DF8EA
:102D600000007CBD00080140C80000200148FEF7BB
:102D70005DBC0000700000200148FEF757BC000059
:102D8000C800002010B5406A0021C187C186FEF747
:102D90004CFC10BDF8B5044640684FF4827398426D
:102DA00017D1A0684FF48065B0F5004F01D0A8425C
:102DB0000FD12068066826F04006066060689842D9
:102DC00007D1A068A84204D100920B46002201213D
:102DD00003E000920B4600228021204600F018F804
:102DE000002804D0606D40F0200060650320F8BD2D
:102DF00038B50B46009204460022802100F008F806
:102E0000002804D0606D40F020006065032038BDCC
:102E10002DE9F8431E46914688460446089DFDF775
:102E200007FE401B351AFDF703FE074625480068DC
:102E3000C0F3CB30684338E0701C37D0FDF7F8FDA5
:102E4000C01BA84203D215B1009860B32CE02068E3
:102E5000416821F0E00141606068B0F5827F0BD1EC
:102E6000A068B0F5004F02D0B0F5806F04D12068A3
:102E7000016821F040010160A06AB0F5005F09D14E
:102E80002068016821F4005101602068016841F464
:102E900000510160012084F85100002084F85000A6
:102EA0000320BDE8F8830025401E0090206881685B
:102EB00038EA010004D000214945BDD10020F0E7E7
:102EC0000121F9E71C00002010B5002306E000BF37
:102ED00030F8024B21F813405B1C9BB29342F7D3AE
:102EE00010BD00002DE9F05FA0F1006415468A4690
:102EF0008346B4F5002F5FD2FDF780FCE70AC4F3E8
:102F00004906C6F58064A54200D82C46DFF8AC908F
:102F10004FF0006000EBC72080464FF480622749E5
:102F2000FFF7D2FF00204FF6FF7106E0331839F8A3
:102F300013208A4203D1401C80B2A042F6D3A042A3
:102F40002ED24046FDF7B4F94CF25030FDF7FEF9B1
:102F50001B48016921F0020101610020494606E099
:102F60003AF810208319401C21F8132080B2A042A7
:102F7000F6D3124940464FF4806200BF00F022F8B9
:102F8000A54215D0281B0AEB440A0BEB440B002684
:102F900085B24FF480647F1CA542B9D82C46B7E7B0
:102FA0004CF25030FDF7D2F9224651465846E5E73B
:102FB000BDE8F05FFDF7D8BBBDE8F09F1002002030
:102FC000002002402DE9F04116460F460546002438
:102FD0000AE000BF37F81420002329460120FDF73E
:102FE000CDFB641CA4B2AD1CB442F3D3BDE8F081A8
:102FF000704770B50C460546FFF78CFE40EA0401A9
:103000002846BDE8704000F095B900002DE9FF4F5B
:1030100083B0884610A9044691E860048146287868
:10302000204F9B4600283AD03888A0EB5601A14299
:1030300035DB7988891B414531DB2A78802A13D911
:10304000801BA0422BDB414529DBCDE9005A059AC4
:10305000182E5B46414620461ED0FDF7A1F9A01967
:1030600084B215F8020FDDE70D2A0ED08DE8440476
:103070005B4641462046059AFFF7B8F904EB560037
:103080001FFA80F415F8010FCCE708EB06001FFAD1
:1030900080F84C466D1CF5E7FDF7F8F9DFE707B05F
:1030A000BDE8F08F02020020FDF7C8BC70B596B0F5
:1030B00028216846FDF76FF814210AA8FDF76BF880
:1030C00018210FA8FDF767F80520009001A94FF41B
:1030D00080300024012581E8310002260495CDE9E5
:1030E00007604FF4E01009906846FDF711FF0F20CC
:1030F000CDE90A06A802CDE90C4002210AA80E94E7
:10310000FDF71AFE2802CDE90F500FA8FDF79EFD2E
:1031100016B070BD704710B5406A0021C185C184EA
:10312000FEF721FE10BD0168CA6822F49072CA60E1
:1031300001684A6922F001024A61202180F83A10B0
:10314000704710B590F83A10222901D0022010BD26
:1031500082684FF480539A4201D1016921B1816A9A
:103160009A421BD04AB10AE00268816A5268C2F3EF
:1031700008020A80816A891C08E0026972B102684B
:10318000526802F07F020A70816A491C8162C18D17
:10319000491E0904090CC18503D016E00268526873
:1031A000F1E70168CA6822F02002CA600168CA68B3
:1031B00022F48072CA6001684A6922F001024A6101
:1031C000202180F83A10FEF7EFFE002010BD00002D
:1031D00070B5044600680169E26821F4405111436A
:1031E00001612169A0680843616908432168CA68D0
:1031F00041F20C639A430243CA6020684169A269A4
:1032000021F44071114341611E492068884202D176
:10321000FDF738FE01E0FDF725FE00EBC00101EBF4
:103220000012606864218000B2FBF0F3B3FBF1F39D
:103230006FF018067343B2FBF0F5B2FBF0F605EB46
:103240008305322303EB0515B5FBF1F5B6FBF1F66B
:1032500005F0F00505EB0615B2FBF0F6B2FBF0F059
:10326000B0FBF1F06FF01802504306EB800003EB67
:103270000010B0FBF1F0216800F00F0028448860D6
:1032800070BD0000003801402DE9F0419846174616
:103290000E460446069D1DE0681C1BD02DB1FDF7AF
:1032A000C7FBA0EB0800A84214D92068C16821F42C
:1032B000D071C1602068416921F001014161202085
:1032C00084F8390084F83A00002084F8380003209C
:1032D000BDE8F0812068006836EA000004D00020D4
:1032E000B842D9D00020F3E70120F9E70D4810B526
:1032F0000068800606D50B48001D00680A49C0B268
:1033000001F0FEF80948FEF72FFD084801684A69F8
:1033100042F001024A610068C16841F02001C160C9
:1033200010BD000000380140940100202001002061
:10333000FEE7000073B5104E04464FF4004582B01E
:10334000002229463046FDF76EFB7E2000EA44004D
:103350008DF800003223012269460848FEF74BFB36
:103360003223012203A90548FEF745FB0122294625
:103370003046FDF758FB7FBD00080140C800002023
:103380000FB4054B10B503A9044A029800F03CF8AD
:1033900010BC5DF814FB0000413E000858000020FE
:1033A0000FB4084B10B504A902AA039800F02CF83A
:1033B000044602A9002000F058FA204610BC5DF82F
:1033C00014FB00006B3800080907090E002804DB15
:1033D00000F1E02080F80014704700F00F0000F1C9
:1033E000E02080F8141D704702E008C8121F08C1D1
:1033F000002AFAD170477047002001E001C1121F76
:10340000002AFBD1704700002DE9FF4F8DB00F4619
:103410000546002606E025280BD0DDE90F1290476F
:103420006D1C761C28780028F5D111B03046BDE817
:10343000F08F0024A246A1460122EC4900E004439B
:1034400015F8013F203B02FA03F00842F7D1287833
:103450002A2810D06FF02F022878A0F13001092916
:1034600014D80AEB8A0102EB410144F0020400EB9C
:10347000010A6D1CF0E701CF5FEA000A03D544F4AE
:103480000054CAF1000A44F002046D1C28782E286A
:1034900017D115F8010F44F004042A280ED06FF05C
:1034A0002F022878A0F1300109290AD809EB8901F7
:1034B00002EB410100EB01096D1CF2E757F8049B98
:1034C0006D1C28786C280FD006DC4C2817D0682893
:1034D0000DD06A2814D104E0742810D07A280FD1B6
:1034E0000DE044F400140AE044F4801401E044F4D4
:1034F00040146978814202D104F580146D1C6D1C62
:103500002A786E2A1FD00CDC632A31D004DC002A12
:103510008BD0582A11D1A3E0642A68D0692A0CD133
:1035200065E0732A2ED004DC6F2A73D0702A04D190
:103530009BE0752A6FD0782A6ED01046DDE90F1215
:103540009047761C50E1C4F30250022806D00328AD
:1035500009D0042801CF09D0066045E101CFF11759
:10356000C0E9006140E101CF06803DE106703BE12A
:1035700017F8040B8DF8000000208DF80100EB46D1
:10358000012003E057F804BB4FF0FF3061074FF014
:10359000000102D40DE008F10101884649450FDA27
:1035A0008045F8DB1BF808100029F4D108E008F189
:1035B000010188468142FADB1BF808100029F6D188
:1035C000DDE90F23AAEB08008146214600F036F919
:1035D000304400EB080604E0DDE90F121BF8010B94
:1035E0009047B8F10108F7D221464846F7E00A2192
:1035F000C4F302534FF0000B0891022B04D001CF0B
:10360000C117032B09D00AE0FF1D27F00707F7E8D1
:10361000020108E032E01FE020E000B2C117042BF5
:1036200001D140B2C117031E71F1000307DA4FF058
:10363000000CD0EB0C006CEB01012D2302E0230504
:1036400004D52B238DF82430012303E0E30701D0B8
:103650002023F7E7984658E00A2110E010210EE0F9
:1036600010204FF0000B08900CE010214FF0000BE1
:1036700044F004044FF00809089103E008214FF0DA
:10368000000B0891C4F30253022B04D001CF002198
:10369000032B06D006E0FF1D27F00707F7E802011D
:1036A00003E080B2042B00D1C0B24FF00008230722
:1036B0002BD5702A07D0DDF820C08CF0100C5CEA06
:1036C0000B0C05D00EE040238DF82430012308E0D8
:1036D00050EA010306D030238DF824308DF82520E0
:1036E00002239846DDF820C08CF0080C5CEA0B0C35
:1036F0000BD150EA010301D1630706D530238DF8C1
:1037000024304FF00108A9F10109582A04D038A249
:103710000B9208AA0A920BE03AA2F9E75B46089AD4
:10372000FCF74BFD0B9B9B5C0A9A521E0A9213708E
:1037300050EA0102F2D10A98ADEB000000F1200B33
:10374000600702D524F4803401E04FF00109D94527
:1037500002DDA9EB0B0000E0002000EB0B0141446F
:103760000890AAEB010AE00306D4DDE90F23214605
:10377000504600F063F806444FF0000908E009A93C
:1037800011F80900DDE90F12904709F10109761CD3
:10379000C145F4DBE0030CD5DDE90F23214650469B
:1037A00000F04CF8064404E0DDE90F1230209047A9
:1037B000761C0899481E08900029F5DC08E00A9854
:1037C0000A990078491C0A91DDE90F129047761C8E
:1037D000BBF10001ABF1010BF1DC21465046DDE904
:1037E0000F2300F019F806446D1C1BE609280100A0
:1037F0003031323334353637383961626364656667
:103800000000000030313233343536373839414228
:1038100043444546000000002DE9F04104460025E0
:103820001E461746880404D405E039462020B047D8
:103830006D1C641EF9D52846BDE8F0812DE9F041E4
:10384000044600251E469046C80301D5302700E0F7
:103850002027880404D505E041463846B0476D1C52
:10386000641EF9D52846BDE8F0810A68531C0B6038
:103870001070704770B51C4D4FF4805400284FF005
:1038800001022146284603D0FDF7CDF8C82022E0EA
:10389000FDF7C9F86420FCF755FF002221462846B1
:1038A000FDF7C1F86420FCF74DFF012221462846B0
:1038B000FDF7B9F86420FCF745FF002221462846B1
:1038C000FDF7B1F86420FCF73DFF012221462846B0
:1038D000FDF7A9F86420FCF735FF21462846BDE82E
:1038E00070400022FDF79FB8001001402DE9FE4F07
:1038F000BA4C0346204694F801C0C2784FF06E09D6
:1039000002EB8200102700254FF47A7609EB800045
:103910004FF6FF7104F11008BCF1000F4ED0BCF15E
:10392000010F7CD0BCF1020F7AD108F80230ACA2B2
:10393000CDE9002789460A46002302953C21FFF77E
:1039400065FBE078052801D2401CE070C0B2052874
:1039500066D16078002863D098F8051040460029A9
:103960005ED002789F4B40F2712C5A43437803FBA0
:103970000CF302EB0312837803EB430CCCEBC31381
:1039800002EBC302C37898F8040003EBC30C0CEB02
:10399000031302EB830200EB800002EB40000844BB
:1039A000A168814276D18D4902220831E068FFF793
:1039B00099FA0020FEF756FB8BA0F5E008F80230DC
:1039C00087A2CDE90027CA4689460A460023029508
:1039D0003C21FFF71BFBE078052801D2401CE0707A
:1039E000C0B2052854D198F80510404600294FD0A0
:1039F00002787C4B40F2712C5A43437803FB0CF362
:103A000002EB0312837803EB430CCCEBC31302EB02
:103A1000C302C37803EBC30C0CEB031301E055E0C6
:103A200036E098F8040002EB830200EB800002EB22
:103A300040000844A06001F00BF9E06058B300209A
:103A4000FEF710FB012060702561A582E570002063
:103A5000FEF708FB6BA0CDE900070023C8464A46E5
:103A60001E2102951420FCF7B3FD002456466AA0DF
:103A7000CDE9000704EB8400029506EB80000023EB
:103A800042464621FFF7C2FA641CE4B2062CEED38C
:103A9000BDE8FE8F84E0FFE725712561A582E57012
:103AA000657025700020FEF7DDFA5CA0CDE9000707
:103AB00000234A463C2102951420FCF789FD30463C
:103AC000FCF740FE3046FCF73DFE82E008F802308D
:103AD00043A2CDE900270E460A46002302953C2169
:103AE000FFF794FAE078052801D2401CE070C0B2DC
:103AF0000528CDD160780028CAD098F805000028A4
:103B0000C6D00020FEF7AEFA98F80000354940F222
:103B10007122484398F80110514300EB011098F8C6
:103B2000021001EB4102C2EBC11100EBC10098F899
:103B3000031001EBC10202EB011100EB810098F8C8
:103B4000041001EB810100EB410098F805100844D6
:103B5000A060022060702561A582E5700020FEF75C
:103B600081FA33A0CDE900070023B04632461E217A
:103B700002951420FCF72CFD00244E4626A0CDE92A
:103B8000000704EB8400029506EB80000023424608
:103B90004621FFF73BFA641CE4B2062CEED377E72C
:103BA0000020FEF75FFA29A0CDE9000700234A466E
:103BB0003C2102951420FCF70BFD3046FCF7C2FDBA
:103BC0003046FCF7BFFD25712561A582E570657063
:103BD0002570BDE8FE4F00F09BB800002C000020CF
:103BE0002A000000A08601004368616E67652070AE
:103BF000617373776F7264207375636365656421A5
:103C000000000000456E746572206E65772070615B
:103C10007373776F726400002D000000556E6B6E39
:103C20006F776E2070617373776F726400000000AD
:103C3000456E746572206E65772070617373776F5F
:103C4000726420616761696E00000000546865203D
:103C500074776F2070617373776F72647320617211
:103C60006520696E636F6E73697374656E740000AE
:103C70000148FCF71DBB000000F0070870B5094DB6
:103C80004FF48074002221462846FCF7CCFEC82061
:103C9000FCF758FD21462846BDE870400122FCF79C
:103CA000C2BE0000000C0140184830B40178851CE9
:103CB0000022022919D1831C417864245B7857299A
:103CC00003D8591A02290EDA0FE0582902D05929CF
:103CD00005D00AE0C3F15801582904D005E0C3F12A
:103CE0005901582901DC02704470297808390F29DC
:103CF00002D20121017005E00178022902D0027090
:103D0000002000E0012030BC00F09CB90000002041
:103D10003EB50020FEF7A6F918200FA1CDE900104E
:103D2000002423464FF61F0202948C214020FFF707
:103D30006DF900210D4A0846FCF720FC10200CA16B
:103D4000CDE9001000234FF6FF720294B9215820EC
:103D5000FFF75CF93EBD0000D0C5BAC5D3EBCFB5C7
:103D6000CDB3CAB5D1E9CAD200000000786D000811
:103D7000D0C5CFA2D3EBB5E7C6F8B9A4B3CCD1A7D1
:103D8000D4BA00003EB50446002110234FF6FF725E
:103D90004FF48370072C19D2DFE804F00406080AF8
:103DA0000C0E10000AA40AE00BA408E00CA406E024
:103DB0000DA404E00EA402E00FA400E010A40094FF
:103DC000CDE901310023DC21FFF720F93EBD0000E1
:103DD000D0C7C6DAC8D50000D0C7C6DAD2BB00004B
:103DE000D0C7C6DAB6FE0000D0C7C6DAC8FD0000EC
:103DF000D0C7C6DACBC40000D0C7C6DACEE5000013
:103E0000D0C7C6DAC1F9000038B50B4C6620ADF852
:103E10000000208866280ED0074802220749303863
:103E2000FFF760F84FF49670FCF78CFC01226946AE
:103E30002046FFF757F838BD30F807085400002037
:103E400013B501231A4669460248FEF7AFF80098F9
:103E50001CBD000020010020074A00204FF4FA6337
:103E60008158491C05D0001D80B29842F8D300202B
:103E7000704710447047000000F00708074A002010
:103E80008118D1F80018491C05D0001D80B22828DF
:103E9000F6D30020704702490844704700F0070835
:103EA00000F807082DE9F041002000F069FE634E9C
:103EB000634CB078C8B101212046FCF7AFFD012862
:103EC00013D102212046FCF7A9FD01280DD10421C0
:103ED0002046FCF7A3FD012807D108212046FCF766
:103EE0009DFD012801D10020B0706420FCF72AFC60
:103EF00001212046FCF792FD504D16350127D8B917
:103F0000B770012000F03CFE01212046FCF786FD41
:103F1000012817D0022000F033FE01212046FCF7D3
:103F20007DFD012811D0032000F02AFE012120464A
:103F3000FCF774FD01280AD002212046FCF76EFD33
:103F400038B122E02878BDE8F0812879FBE7287AAB
:103F5000F9E7B770012000F013FE02212046FCF7BC
:103F60005DFD012817D0022000F00AFE0221204644
:103F7000FCF754FD012810D0032000F001FE0221BF
:103F80002046FCF74BFD012809D004212046FCF710
:103F900045FD30B121E06878D5E76879D3E7687AE4
:103FA000D1E7B770012000F0EBFD04212046FCF7BB
:103FB00035FD012817D0022000F0E2FD0421204643
:103FC000FCF72CFD012810D0032000F0D9FD0421BE
:103FD0002046FCF723FD012809D008212046FCF7E4
:103FE0001DFD30B121E0A878ADE7A879ABE7A87A4C
:103FF000A9E7B770012000F0C3FD08212046FCF7B7
:104000000DFD012813D0022000F0BAFD0821204642
:10401000FCF704FD01280CD0032000F0B1FD0821BD
:104020002046FCF7FBFC012805D00D208BE7E87843
:1040300089E7E87987E7E87A85E700002C00002027
:1040400000100140044B08B1012200E000221021C1
:104050001846FCF7E8BC000000100140FEB5224CF9
:104060004FF40066251510B101280BD039E000226D
:1040700031462046FCF7D7FC012229462046FCF7B2
:10408000D2FC2EE00120FFF7F5FB0120FFF7DAFF5D
:104090000020FDF7E7FF0022102114A08DE80700A3
:1040A00013464FF6FF723C210020FCF791FA0122E3
:1040B00031462046FCF7B7FC002229462046FCF793
:1040C000B2FC4FF47A742046FCF73CFB2046FCF728
:1040D00039FB2046FCF736FBFFF71AFE0020FFF7FE
:1040E000BDFF0120FEBD000000100140446F6F7253
:1040F000206F70656E0000002DE9F84F817804464E
:10410000F748891EFCF7ACF882B2110A84F86B10EC
:10411000D2B284F86C2094F869000127814206D15C
:1041200094F86A00824202D10020207100E02771D9
:104130001421EB48FCF72FF8E078E94DE94E4FF0F9
:1041400002094FF007080A2845D2DFE800F0AF0562
:10415000456CBBDDFDFCFBFA607828703078687038
:1041600085F80280E078E870207928710521DC4824
:10417000FCF776F8010A84F86B1084F86C00AA2129
:10418000D9A0FFF7FDF86178D7A0FFF7F9F83178EB
:10419000D5A0FFF7F5F80721D3A0FFF7F1F8E178F4
:1041A000D1A0FFF7EDF82179CFA0FFF7E9F894F857
:1041B0006B10CDA0FFF7E4F894F86C10CAA0FFF7DD
:1041C000DFF85521C8A0FFF7DBF8207900286DD172
:1041D0000120FFF743FF69E0207938B9607930703A
:1041E0000090C24801226946FEF77CFE6078287084
:1041F0003078687085F80280E078E870207928715E
:104200000521B748FCF72CF8010A84F86B1084F8F4
:104210006C00AA21B4A0FFF7B3F86178B2A0FFF751
:10422000AFF861794FE1207900283FD100F0A2FC7E
:1042300030706178297068700821A970E178E970A0
:104240002179297168710621A548FCF709F8010A4E
:1042500084F86B1084F86C00AA21A3A0FFF790F8F3
:104260006178A1A0FFF78CF831789FA0FFF788F85C
:1042700008219DA0FFF784F8E1789BA0FFF780F864
:10428000217999A0FFF77CF8317897A0FFF778F8AB
:1042900094F86B1094A0FFF773F894F86C1092A048
:1042A000FFF76EF8552190A0FFF76AF86D212046C0
:1042B000FBF771FF14218A48FBF76DFFFFF7DEFC67
:1042C000BDE8F88F207900281DD1A078801FC7B2E3
:1042D00017E0E119D1F80100097900BA20F0FF00D8
:1042E0000843009000F07EFC48B9FFF7B5FD20B10F
:1042F00002226946FEF7F6FD01E084F804903F1FB4
:10430000FFB2002FE5D1C2E020790028FBD1A078D0
:104310004FF0FF39801FC7B21BE0E119D1F801004F
:10432000097900BA20F0FF000843824600F05AFCE9
:1043300068B1504600F068FC02226946CDF8009052
:1043400003E088E030E00DE006E0FEF7CBFD3F1F24
:10435000FFB2002FE1D19AE020790028D3D1FFF7F6
:1043600087FC94E0207900281DD1A078801FC7B277
:1043700017E0E119D1F80100097900BA20F0FF0037
:104380000843009000F052FC48B9FFF777FD20B1D8
:1043900002226946FEF7A6FD01E084F804903F1F63
:1043A000FFB2002FE5D172E02079D8B95048617989
:1043B00001220170A1794170E17981704D48217A23
:1043C000C170617A4170A17A8170E17A01704849C7
:1043D0004948FDF7B7F8012246494748FDF750F82C
:1043E0004648C770607828703078687085F8028019
:1043F000E078E8702079287105213948FBF730FF13
:10440000010A84F86B1084F86C00AA2136A0FEF72C
:10441000B7FF617834A0FEF7B3FF317832A0FEF722
:10442000AFFF072130A0FEF7ABFFE1782EA0FEF72B
:10443000A7FF21792CA0FEF7A3FF94F86B102AA008
:10444000FEF79EFF94F86C1027A0FEF799FF552108
:1044500025A0FEF795FF2079C8B9D4F80500217A88
:1044600000BA20F0FF000843009000F0F1FB60B1BB
:10447000D4F80910227B09BA21F0FF011143009101
:1044800002226946FEF72EFD01E084F80490607870
:1044900028703078687085F80280E078E8702079BC
:1044A000287105210E48FBF7DBFE010A84F86B102A
:1044B00084F86C00AA210CA0FEF762FF61780AA0C4
:1044C000FEF75EFF317808A0FEF75AFF072106A02D
:1044D000FEF756FFE17804A0FEF752FF2179D4E6FB
:1044E00080010020500000202563000034F80708F8
:1044F00002000020050000205C00002020000020B9
:10450000F0B5254A0024062517780126234B092FEC
:1045100009D2DFE807F005090D11192332363B00F7
:10452000AA2800D11670F0BD0870187002202BE088
:1045300048705870032027E088709870042010702D
:104540008878062825D3F0BDC870D8700520107073
:10455000547088780628F6D11570F0BD56788F19FA
:10456000334478711871761CF0B250708978C91F85
:104570008142F2DA15705470F0BD81F869000720AD
:1045800002E081F86A0008201070F0BD552800D1C3
:1045900096701470F0BD0000200000208001002003
:1045A00094B0DFA010AB07C883E807004FF0000A03
:1045B0005546FCF74BFAFEF779FDFEF767F8FEF774
:1045C00025F9FEF73FF9DA4CD8484FF00009206092
:1045D0004FF49640C4E901090C21C4F80C90C4E9D9
:1045E0000491C4F818902046C4F81C90FDF76AFCAA
:1045F000FEF7DCF8FFF708FC00F09AFAFDF794FDEF
:1046000000224FF40071CB48FCF70DFA00F0B2FA2B
:10461000C94908708DF842002068C16841F0200146
:10462000C160C820FCF78EF80020FDF71BFDDFF805
:104630000C83DFF80CB30A20FCF784F80A20761C00
:10464000B6FBF0F100FB116060B9BE4F4FF400748F
:1046500021463846FCF7E2F940B1002221463846AF
:10466000FCF7E1F9B84F387810B151E00122F5E7D5
:10467000B1480078FF284BD02DB18DF842000025BD
:104680002846FDF7EFFC1020B0A2CDE90020002362
:10469000CDF808904FF6FF723C211846FBF798FFC3
:1046A000002410A8015DACA0FEF76AFE641CE4B211
:1046B000092CF6D34FF47A742046FCF743F82046D1
:1046C000FCF740F82046FCF73DF82046FCF73AF8A6
:1046D0002046FCF737F80AF1010000F0FF0ABAF1B2
:1046E000050F14D90020FDF7BDFC10219BA2CDE9D8
:1046F00000210023CDF808904FF6FF723C211846A8
:10470000FBF766FF2046FCF71DF8012038707EE0BD
:1047100015B9FFF7FDFA01251420B6FBF0F100FBF7
:104720001160002873D0864981480122891CC43851
:10473000FCF7C5FD82497E480122491DC438FCF7BB
:1047400097FDFFF7B1FA98F8000000285FD19BF8B9
:10475000000000285BD07A4F84A1BF1C03A83A78E0
:10476000FEF71EFE502003ACCDE9004000234FF6BB
:10477000FF722821CDF808903220FEF747FC502127
:104780007CA2CDE900210023CDF808904FF6FF72FE
:104790001E218220FEF73AFC7A7874A103A8FEF766
:1047A000FFFD5021CDE9004100234FF6FF72CDF807
:1047B00008902821AA20FEF729FCBA786BA103A84B
:1047C000FEF7EEFD2021CDE9004100234FF6FF72F8
:1047D000CDF808904C214FF48270FEF717FCFF1CB7
:1047E00065A1B87800907B78FA7803A8FEF7D8FD29
:1047F0001021CDE9004100234FF6FF72CDF808905B
:10480000DC210A20FEF702FC3878FFF7BBFA4C489F
:104810000C3000F097F970B34C4688F80090FFF721
:104820002DFADBF80C0000F0DDF930B10120FFF7C4
:1048300015FC002000F020FA1DE00020FFF71AF818
:10484000012000F019FA0120FFF7FCFB0020FDF722
:1048500009FC10204DA1CDE9001000234FF6FF7296
:1048600002943C211846FBF7B3FE4FF47A70FBF735
:1048700069FFFFF74DFA484C207830B14748FFF701
:104880003BFC84F80090FFF7F9F998F800004446E3
:1048900000BBFFF707FB07460D2818D09BF8001058
:1048A000584631B9022101702549891C49788BF895
:1048B0000110012211031F48FCF7B5F86420FBF733
:1048C00041FF00224FF480511A48FCF7ACF83846FB
:1048D00000F066F8207801287FF4ADAEFFF7E2FA29
:1048E00004460D2818D09BF80000594630B9022024
:1048F00008701348801C40788BF8010001221703D0
:1049000039460C48FCF78FF86420FBF71BFF0022A8
:1049100039460848FCF787F8204600F039FA8AE65D
:10492000AA000007080893C755000000003801409E
:104930002001002000100140500000203000002025
:1049400000000020000C0140230000206765742057
:1049500074696D652E2E2E00256300006765742036
:1049600074696D65206572726F722100253032782E
:10497000000000003A0000003230253032782D254A
:104980003032782D2530327800000000556E6B6E85
:104990006F776E2063617200220000209401002076
:1049A000FEB50A282CD00B282AD14FF47A74204661
:1049B000FBF7C8FE2046FBF7C5FEFFF773FA0B288E
:1049C0001ED11048012100240171C4702046FDF75A
:1049D00049FB10250CA0CDE900054FF6FF7600231A
:1049E0003246462102941420FBF7F2FD0EA0CDE9D9
:1049F0000005002332468C2102941420FBF7E8FDC9
:104A0000FEBD00002C000020312E496E7075742010
:104A100070617373776F726420746F206F70656E4E
:104A200020646F6F72000000322E4368616E67650C
:104A30002070617373776F72640000002DE9FE438C
:104A4000334C1027A4F110050026E9784FF6FF79C2
:104A5000334660542FA0CDE9000701EB81006E21A1
:104A600001EB800002964A463C21FEF7CFFAE87837
:104A7000052801D2401CE870C0B2052846D16079F3
:104A8000002843D02178244A40F2712351436278B0
:104A90005A4301EB0212A17801EB4103C3EBC111B0
:104AA00002EBC101E27802EBC20303EB021201EB5D
:104AB0008201227902EB820201EB42010844804626
:104AC00000F0B4F830B1404600F01EF90120FFF7C5
:104AD000C5FA16E00020FDF7C5FA10A0CDE90007E1
:104AE00000234A463C2102961846FBF771FD4FF41D
:104AF0007A773846FBF726FE3846FBF723FEFFF7AA
:104B000007F92660A680EE702E712E70BDE8FE8338
:104B10003C0000202A000000A0860100556E6B6E4C
:104B20006F776E2070617373776F7264000000009E
:104B300010B5FDF79FFFFDF7A3FEBDE81040412033
:104B4000FDF778BD38B5044669465220FDF769FF88
:104B500008B1002038BD0648FDF7A3FE04480168EF
:104B6000C07809BA21F0FF0101430120216038BD5E
:104B700024000020014800687047000034F807084E
:104B800010B5174CB0B1012816D0022820D0032848
:104B900025D1002208212046FBF745FF00220421F1
:104BA0002046FBF740FF01222046BDE810400221CD
:104BB000FBF739BF002200E0012208212046FBF765
:104BC00032FF002204212046FBF72DFF0022EBE7F5
:104BD000002208212046FBF726FF0122F2E710BD44
:104BE0000008014010B5074B00214FF4FA64CA5881
:104BF000904201D1012010BD091D89B2A142F6D316
:104C0000002010BD00F0070810B5074A00214FF43E
:104C1000FA648B58984201D1881810BD091D89B2D9
:104C2000A142F6D3002010BD00F00708074B002179
:104C3000CA18D2F80028904201D101207047091DFE
:104C400089B22829F4D300207047000000F007083B
:104C5000074B0021CA18D2F80028904202D105481B
:104C600008447047091D89B22829F3D300207047F2
:104C700000F0070800F807087FB5AA218DF800109A
:104C80001D4A00218DF8011012788DF804108DF85E
:104C900005008DF8022019480B228DF803200178B9
:104CA0008DF8061041788DF8071081788DF808107E
:104CB000C0788DF80900124901206D460B182A5C56
:104CC000401CC0B203F8012C0A28F7D309210C4874
:104CD000FBF7C6FA010A8DF80A108DF80B00552073
:104CE0008DF80C00002407A0295DFEF749FB641C29
:104CF000E4B20D2CF7D37FBD50000020240000202B
:104D000080010020256300003EB5AA218DF8001027
:104D100000218DF801101B496D4609788DF80210AD
:104D20000A218DF803108DF80410010E8DF805107E
:104D3000010C8DF80610010A8DF807108DF8080097
:104D4000114901200B182A5C401CC0B203F8012C49
:104D50000928F7D308210C48FBF782FA010A8DF8DD
:104D600009108DF80A0055208DF80B00002407A0CB
:104D7000295DFEF705FB641CE4B20C2CF7D3FEF7AB
:104D80007DFF3EBD50000020800100202563000013
:104D90002DE9FE430024DFF8088107460A2809D0E0
:104DA0000B2F14D00D2F12D098F8000088B10128D5
:104DB00069D06BE04823DC223C2164200094FDF79D
:104DC00089F9374810300460848088F80340BDE8D2
:104DD000FE8310254FF47A704FF6FF764FF06E0980
:104DE000012F28D0022FF2D1022188F80010FBF702
:104DF000A9FC0020FDF736F92AA0CDE90005002323
:104E000032461E2102941420FBF7E2FBB046002735
:104E10004E4629A0CDE9000507EB8700029406EB7A
:104E20008000002342464621FEF7F0F87F1CFFB2C7
:104E3000062FEED3CBE7012188F80010FBF782FCA8
:104E40000020FDF70FF91DA0CDE90005002337462E
:104E500032461E2102941420FBF7BAFBB846002606
:104E60004F4615A0CDE9000506EB8600029407EB3E
:104E70008000002342464621FEF7C8F8761CF6B2B1
:104E8000062EEED3A3E73846FFF7D8FD98F80000CA
:104E900002289CD13846BDE8FE43FEF727BD00003E
:104EA0002C000020456E746572206F6C6420706168
:104EB0007373776F726400002D000000456E746597
:104EC000722070617373776F7264000000000000DD
:104ED00000000000010203040607080900000000AA
:104EE00001020304000000000000000000000000B8
:104EF000000000000000000808080808080800007A
:104F00001818000000486C24120000000000000087
:104F1000000000000000002424247F1212127F12DF
:104F2000121200000000081C2A2A0A0C1828282A3D
:104F30002A1C080800000022251515152A5854546B
:104F4000542200000000000C1212120A76252911CA
:104F5000916E00000006060403000000000000003F
:104F60000000000000402010100808080808081081
:104F70001020400000020408081010101010100843
:104F8000080402000000000008086B1C1C6B0808E5
:104F90000000000000000000080808087F0808085A
:104FA00008000000000000000000000000000000F9
:104FB000060604030000000000000000FE000000E0
:104FC00000000000000000000000000000000000E1
:104FD0000606000000008040402020101008080451
:104FE00004020200000000182442424242424242AF
:104FF00024180000000000080E0808080808080827
:10500000083E00000000003C4242422020100804FC
:10501000427E00000000003C4242201820404042F6
:10502000221C0000000000203028242422227E20A0
:10503000207800000000007E0202021A2640404252
:10504000221C0000000000382402021A26424242BC
:10505000241800000000007E222210100808080812
:10506000080800000000003C42424224182442424A
:10507000423C000000000018244242426458404074
:10508000241C0000000000000000181800000000B0
:1050900018180000000000000000000800000000D8
:1050A0000008080400000040201008040204081052
:1050B000204000000000000000007F0000007F0092
:1050C000000000000000000204081020402010082A
:1050D000040200000000003C424246402010100044
:1050E000181800000000001C225A555555552D4235
:1050F000221C00000000000808181414243C22425E
:1051000042E700000000001F2222221E22424242EB
:10511000221F00000000007C424201010101014207
:10512000221C00000000001F224242424242424232
:10513000221F00000000003F4212121E1212024203
:10514000423F00000000003F4212121E12120202F3
:10515000020700000000003C22220101017121220F
:10516000221C0000000000E7424242427E424242CE
:1051700042E700000000003E080808080808080888
:10518000083E00000000007C1010101010101010DD
:105190001010110F0000007722120A0E0A121222BC
:1051A000227700000000000702020202020202024F
:1051B000427F000000000077363636362A2A2A2A37
:1051C0002A6B0000000000E346464A4A52525262EF
:1051D000624700000000001C224141414141414121
:1051E000221C00000000003F424242423E020202F6
:1051F000020700000000001C2241414141414D5383
:10520000321C60000000003F4242423E1212222245
:1052100042C700000000007C4242020418204042C5
:10522000423E00000000007F4908080808080808FE
:10523000081C0000000000E7424242424242424253
:10524000423C0000000000E74242222424141418CB
:10525000080800000000006B4949494955553622AD
:1052600022220000000000E74224241818182424F9
:1052700042E7000000000077222214140808080802
:10528000081C00000000007E2120101008040442C9
:10529000423F0000007808080808080808080808C5
:1052A0000808780000000202040408080810102012
:1052B00020204040001E1010101010101010101070
:1052C00010101E0000384400000000000000000024
:1052D00000000000000000000000000000000000CE
:1052E000000000FF000608000000000000000000B1
:1052F00000000000000000000000003C4278444232
:1053000042FC0000000000030202021A2642424250
:10531000261A0000000000000000003844020202CB
:10532000443800000000006040404078444242425F
:1053300064D80000000000000000003C427E020231
:10534000423C0000000000F08808087E08080808B9
:10535000083E0000000000000000007C22221C0229
:105360003C42423C000000030202023A46424242F2
:1053700042E700000000000C0C00000E08080808BE
:10538000083E0000000000303000003820202020BF
:105390002020221E0000000302020272120A1612CE
:1053A000227700000000000E080808080808080816
:1053B000083E0000000000000000007F92929292E0
:1053C00092B70000000000000000003B464242424D
:1053D00042E70000000000000000003C4242424260
:1053E000423C0000000000000000001B2642424238
:1053F000221E0207000000000000007844424242E2
:10540000447840E000000000000000774C040404F1
:10541000041F0000000000000000007C42023C402D
:10542000423E0000000000000008083E080808088E
:1054300008300000000000000000006342424242C9
:1054400062DC000000000000000000E74224241499
:105450000808000000000000000000EB4949555515
:105460002222000000000000000000762418181816
:10547000246E000000000000000000E74224241415
:1054800018080807000000000000007E221008082D
:10549000447E000000C0202020202010202020205A
:1054A0002020C0001010101010101010101010103C
:1054B000101010100006080808080810080808084E
:1054C000080806000C32C2000000000000000000C6
:1054D00000000000D0C700001FF010101FF01010D7
:1054E0001FF0010011001FF8210041001FF0010012
:1054F00001007FFC0000C6DA2200227C7F442244A7
:1055000022443E7C224422443E44227C2244FF44E6
:105510000484228441148208D2BB000000000000F1
:105520000000000000000000FFFE0000000000007E
:1055300000000000000000000000B6FE00000000B7
:1055400000003FF800000000000000000000000024
:1055500000000000FFFE000000000000C8FD000089
:1055600000007FFC00000000000000003FF8000089
:105570000000000000000000FFFE00000000CBC49F
:10558000000000007FFC44444444444444444444F8
:105590004844483C5004600440047FFC4004000040
:1055A000CEE500007FFC02000200020002003FF096
:1055B0000410041004100410081008100810FFFE56
:1055C0000000C1F902000100008000800000FFFE21
:1055D00000000000044004200810080810082004FF
:1055E00040040000C8D500001FF01010101010106B
:1055F000101010101FF010101010101010101010BC
:1056000010101FF01010D0C5084008200BFE10002D
:10561000100031FC3000500091FC1000100011FC13
:105620001104110411FC1104D3EB10001000100040
:105630001FFC1000200020003FF8000800080008B0
:10564000FFC80008000800500020CFA2010002009F
:105650001FF010101FF010101FF010101FF010108E
:10566000010008844892481287F00000B9A40000A5
:1056700000007FFC010001000100010001000100A9
:105680000100010001000100FFFE00000000B5E77D
:105690000100010001003FF82108210821083FF81E
:1056A0002108210821083FF8210A0102010200FE19
:1056B000C6F8100010003FFC20004FF080003FF0C3
:1056C00000100010001000100010000A000A000670
:1056D0000002B3CC08001DFCF10411041104FDFC10
:1056E0001000300039FE5420542091FC102010206E
:1056F00013FE1000D1A722081108111000207FFE10
:10570000400280041FE000400180FFFE0100010014
:10571000010005000200D4BA004078204BFE52027E
:10572000540461F8500048004BFE48906890509037
:1057300041124112420E4400D0C500000000040096
:1057400003020002030002030804FFFC0400000837
:1057500000100C7FF8140000140010247FF844009F
:1057600000040000040000043FF80420100420108E
:10577000042010042010043FF00420100420100026
:105780000000BAC500000000000003FFC002004096
:1057900002004002004002004002004003FFC0023D
:1057A00000403FFFFC00C00000800001800001FFBE
:1057B000E00100600000400000400000400000C028
:1057C000001880000780000600000000D3EB0000F6
:1057D000000100000180000100000100000100083C
:1057E00001FFFC01000001000003000003001003A2
:1057F000FFF80000100000100000100001107FFFF3
:10580000900000100000300000300004600003E051
:10581000000080000000CFB500000000002000075D
:10582000F007F800001C000030000040400180C07C
:1058300006FF000386000018000060400180300E63
:10584000FFD8070C18008C00008D80018C60030CC1
:1058500030040C1818CC0C20380800100000000090
:10586000CDB3000000020200030100060180043FE6
:10587000FC08030008C3001084003F04202208181D
:105880000611FC0C3E4C08064037844038044000AA
:1058900004400004400384443C0C4430084400109D
:1058A0004400607C008000000000CAB500000000D9
:1058B0001000001800000C000008000FFFFC100092
:1058C0000C11041030C600006400004400060400FF
:1058D000030400010C00010C083FFFFC000800005D
:1058E0001C000013000020E000C030070018380042
:1058F00008000000D1E90000000001000001003FA5
:10590000838001828011064019042011083011188B
:105910001811102E113FF01100003FC01000C218E6
:105920000093180089100F89B07089A000892000A9
:1059300088401180440F3FFC020000000000CAD2E2
:105940000000000030000018000008080FFFF810E9
:1059500000181000103000400FFFE0003000004041
:1059600080018060063FE007C02000102000180082
:1059700000180007FFE00018000018000018087F5A
:10598000FFFC00000000000000000000000000001C
:105990000000000007E00FF01C383838381C301CBD
:1059A000700C700C700C700C700C700C700C700C17
:1059B000700C301C381C38181C381FF007E00180B0
:1059C00000000000000000000000000000000000D7
:1059D0000000000001C001C003C007C01DC019C005
:1059E00011C001C001C001C001C001C001C001C09F
:1059F00001C001C001C001C001C001C001C0000060
:105A00000000000000000000000000000000000096
:105A1000000000000FE01FF83C38381C701C001C10
:105A2000001C001800380038007000E000C001C001
:105A3000038007000E001C003C003FFC3FFC000000
:105A40000000000000000000000000000000000056
:105A50000000000007E00FF81C38381C301C101C38
:105A6000001C0018007803E003F00078001C001C04
:105A7000001C100C701C381C3C381FF80FE0018013
:105A80000000000000000000000000000000000016
:105A90000000000000300070007000F001F001B064
:105AA00003B007300E300C301C30383030307030DE
:105AB000FFFEFFFEFFFE003000300030003000002F
:105AC00000000000000000000000000000000000D6
:105AD000000000001FF81FF8180018001800380018
